{
  "_format": "hh-sol-artifact-1",
  "contractName": "RedPacket",
  "sourceName": "contracts/RedPacket.sol",
  "abi": [
    {
      "inputs": [],
      "name": "InvalidParameters",
      "type": "error"
    },
    {
      "inputs": [],
      "name": "RedPacketNotFound",
      "type": "error"
    },
    {
      "inputs": [],
      "name": "ReentrancyGuardReentrantCall",
      "type": "error"
    },
    {
      "anonymous": false,
      "inputs": [
        {
          "indexed": true,
          "internalType": "uint256",
          "name": "id",
          "type": "uint256"
        },
        {
          "indexed": true,
          "internalType": "address",
          "name": "claimer",
          "type": "address"
        }
      ],
      "name": "AlreadyClaimed",
      "type": "event"
    },
    {
      "anonymous": false,
      "inputs": [
        {
          "indexed": true,
          "internalType": "uint256",
          "name": "id",
          "type": "uint256"
        },
        {
          "indexed": true,
          "internalType": "address",
          "name": "claimer",
          "type": "address"
        },
        {
          "indexed": false,
          "internalType": "uint256",
          "name": "amount",
          "type": "uint256"
        },
        {
          "indexed": false,
          "internalType": "uint256",
          "name": "remainingAmount",
          "type": "uint256"
        }
      ],
      "name": "RedPacketClaimed",
      "type": "event"
    },
    {
      "anonymous": false,
      "inputs": [
        {
          "indexed": true,
          "internalType": "uint256",
          "name": "id",
          "type": "uint256"
        },
        {
          "indexed": true,
          "internalType": "address",
          "name": "creator",
          "type": "address"
        },
        {
          "indexed": false,
          "internalType": "uint256",
          "name": "totalAmount",
          "type": "uint256"
        },
        {
          "indexed": false,
          "internalType": "uint256",
          "name": "packetCount",
          "type": "uint256"
        }
      ],
      "name": "RedPacketCreated",
      "type": "event"
    },
    {
      "anonymous": false,
      "inputs": [
        {
          "indexed": true,
          "internalType": "uint256",
          "name": "id",
          "type": "uint256"
        }
      ],
      "name": "RedPacketEmpty",
      "type": "event"
    },
    {
      "inputs": [
        {
          "internalType": "uint256",
          "name": "redPacketId",
          "type": "uint256"
        }
      ],
      "name": "claimRedPacket",
      "outputs": [],
      "stateMutability": "nonpayable",
      "type": "function"
    },
    {
      "inputs": [
        {
          "internalType": "uint256",
          "name": "totalAmount",
          "type": "uint256"
        },
        {
          "internalType": "uint256",
          "name": "packetCount",
          "type": "uint256"
        }
      ],
      "name": "createRedPacket",
      "outputs": [
        {
          "internalType": "uint256",
          "name": "",
          "type": "uint256"
        }
      ],
      "stateMutability": "payable",
      "type": "function"
    },
    {
      "inputs": [
        {
          "internalType": "uint256",
          "name": "redPacketId",
          "type": "uint256"
        }
      ],
      "name": "getRedPacket",
      "outputs": [
        {
          "components": [
            {
              "internalType": "address",
              "name": "creator",
              "type": "address"
            },
            {
              "internalType": "uint256",
              "name": "totalAmount",
              "type": "uint256"
            },
            {
              "internalType": "uint256",
              "name": "remainingAmount",
              "type": "uint256"
            },
            {
              "internalType": "uint256",
              "name": "packetCount",
              "type": "uint256"
            },
            {
              "internalType": "uint256",
              "name": "claimedCount",
              "type": "uint256"
            },
            {
              "internalType": "uint256",
              "name": "createdAt",
              "type": "uint256"
            }
          ],
          "internalType": "struct RedPacket.RedPacketData",
          "name": "",
          "type": "tuple"
        }
      ],
      "stateMutability": "view",
      "type": "function"
    },
    {
      "inputs": [
        {
          "internalType": "uint256",
          "name": "redPacketId",
          "type": "uint256"
        },
        {
          "internalType": "address",
          "name": "account",
          "type": "address"
        }
      ],
      "name": "hasClaimed",
      "outputs": [
        {
          "internalType": "bool",
          "name": "",
          "type": "bool"
        }
      ],
      "stateMutability": "view",
      "type": "function"
    },
    {
      "inputs": [],
      "name": "nextRedPacketId",
      "outputs": [
        {
          "internalType": "uint256",
          "name": "",
          "type": "uint256"
        }
      ],
      "stateMutability": "view",
      "type": "function"
    }
  ],
  "bytecode": "0x60806040526001805534801561001457600080fd5b506001600055610810806100296000396000f3fe60806040526004361061004a5760003560e01c806332ef73721461004f578063360794f7146100735780636656432e146100e3578063873f6f9e14610105578063dabcaf061461015b575b600080fd5b34801561005b57600080fd5b506001545b6040519081526020015b60405180910390f35b34801561007f57600080fd5b5061009361008e3660046106d5565b61016e565b60405161006a919081516001600160a01b031681526020808301519082015260408083015190820152606080830151908201526080808301519082015260a0918201519181019190915260c00190565b3480156100ef57600080fd5b506101036100fe3660046106d5565b610232565b005b34801561011157600080fd5b5061014b6101203660046106ee565b60009182526003602090815260408084206001600160a01b0393909316845291905290205460ff1690565b604051901515815260200161006a565b61006061016936600461072a565b6104a2565b6101b06040518060c0016040528060006001600160a01b0316815260200160008152602001600081526020016000815260200160008152602001600081525090565b600082815260026020818152604092839020835160c08101855281546001600160a01b03168082526001830154938201939093529281015493830193909352600383015460608301526004830154608083015260059092015460a08201529061022c576040516356c70c8b60e01b815260040160405180910390fd5b92915050565b61023a610586565b600081815260026020526040902080546001600160a01b0316610270576040516356c70c8b60e01b815260040160405180910390fd5b600082815260036020908152604080832033845290915290205460ff16156102c557604051339083907fa9214540dbdab41c9e79b3f2188acea45d13e6ac15f24990e9f6ddf7cc0e418090600090a350610495565b806003015481600401541015806102de57506002810154155b156103145760405182907fe2c5651fd98c1c140f32da43b33286590f5497347dfc98008731c47a3e7d1f6e90600090a250610495565b60006103218333846105b0565b9050808260020160008282546103379190610762565b9250508190555060018260040160008282546103539190610775565b90915550506000838152600360209081526040808320338085529252808320805460ff191660011790555183908381818185875af1925050503d80600081146103b8576040519150601f19603f3d011682016040523d82523d6000602084013e6103bd565b606091505b50509050806104045760405162461bcd60e51b815260206004820152600f60248201526e1514905394d1915497d19052531151608a1b604482015260640160405180910390fd5b6002830154604080518481526020810192909252339186917fbb7f025bba52443010cd39d48ad8423a7c12533274f1d7943d72f8c4f4e0f702910160405180910390a38260030154836004015410158061046057506002830154155b156104915760405184907fe2c5651fd98c1c140f32da43b33286590f5497347dfc98008731c47a3e7d1f6e90600090a25b5050505b61049f6001600055565b50565b60006104ac610586565b8115806104b7575082155b806104c25750823414155b156104e057604051630e52390960e41b815260040160405180910390fd5b60018054600091826104f183610788565b90915550600081815260026020818152604080842080546001600160a01b031916339081178255600182018b90559381018a905560038101899055600481019490945542600585015580518981529182018890529394509192909184917f680e257dda79cd07165570434d5cd2ff8221d3f4d092abfc2a09a555440e93ee910160405180910390a350905061022c6001600055565b6002600054036105a957604051633ee5aeb560e01b815260040160405180910390fd5b6002600055565b600080826004015483600301546105c79190610762565b9050806001036105dd57505060028101546106ce565b60016000816105ec8185610762565b6105f691906107a1565b85600201546106059190610762565b9050818111610618575091506106ce9050565b8454600486015460408051602081018b90526bffffffffffffffffffffffff19606094851b8116928201929092529289901b16605483015260688201524260888201524460a882015260009060c80160408051601f1981840301815291905280516020909101209050600061068d8484610762565b610698906001610775565b90506000846106a783856107b8565b6106b19190610775565b905087600201548111156106c6575060028701545b955050505050505b9392505050565b6000602082840312156106e757600080fd5b5035919050565b6000806040838503121561070157600080fd5b8235915060208301356001600160a01b038116811461071f57600080fd5b809150509250929050565b6000806040838503121561073d57600080fd5b50508035926020909101359150565b634e487b7160e01b600052601160045260246000fd5b8181038181111561022c5761022c61074c565b8082018082111561022c5761022c61074c565b60006001820161079a5761079a61074c565b5060010190565b808202811582820484141761022c5761022c61074c565b6000826107d557634e487b7160e01b600052601260045260246000fd5b50069056fea264697066735822122016a18ad5549f6bb6bba1371bcb5bb3ba5c0803db077e43b508ed4a56e496867464736f6c63430008180033",
  "linkReferences": {},
  "deployedLinkReferences": {}
}